:100000000AC019C02CC017C016C015C014C013C038
:1000100012C011C010C011271FBFCFE5D0E0DEBF56
:10002000CDBF20E0A0E4B0E001C01D93A534B2072D
:10003000E1F784D08CC0E4CF42E84EBD49E14DBD2C
:100040004FE15EE453BD42BD42E756E057BD46BDB9
:1000500057BD46BD41E042BB44E040BB08951F93FD
:100060000F930FB70F9310E04F935F936F937F93AE
:10007000EF93FF9310BB4EE34A95F1F740E050E059
:10008000483088F460E86A95F1F70000029B09C0E7
:1000900061E070E0042F02C0660F771F0A95E2F757
:1000A000562B4F5FEDCF40E84A95F1F70000029BD9
:1000B00038C0563519F041A1463599F5573549F5FF
:1000C00042A14934B9F028F4443451F0463469F07F
:1000D0001DC04135A1F04235B1F04035B9F413C02F
:1000E00048E755E057BD46BD11C042E756E057BD51
:1000F00046BD0CC04CE657E057BD46BD07C042B1F7
:10010000426042B903C042B14D7F42B910A911A962
:1001100008C040A1E42FF0E0EF5BFF4F50834F5F3A
:1001200040A944E040BBFF91EF917F916F915F91B7
:100130004F910F910FBF0F911F911895789442B175
:100140004D7F42B941B1436041B976DFFFCFF894AA
:02015000FFCFDF
:00000001FF
