:100000000AC019C075C017C016C015C014C013C0EF
:1000100012C011C010C011271FBFCFE5D0E0DEBF56
:10002000CDBF20E0A0E4B0E001C01D93A534B2072D
:10003000E1F7D3D0DFC0E4CF41B1416041B942E83C
:100040004EBD49E14DBD089541E042BB44E040BB97
:100050000895F2DF43E858E053BD42BD42B553B5C1
:100060005695479557BD46BD41B1416041B942EDF6
:100070005FE541505040E9F700C041B14E7F41B9C2
:1000800042ED5FE541505040E9F700C041B14160A9
:1000900041B95AE46FE741E0515060404040E1F718
:1000A000000041B14E7F41B90895C6DF49EE51E0ED
:1000B00053BD42BD42B553B55695479557BD46BD54
:1000C000089541B1416041B949EF55EE60E04150BA
:1000D00050406040E1F7000041B14E7F41B949EF27
:1000E00055EE60E0415050406040E1F70000089557
:1000F0001F930F930FB70F9310E04F935F936F937E
:100100007F938F939F93AF93BF93EF93FF9310BB16
:100110004EE34A95F1F740E050E0483088F460E85B
:100120006A95F1F70000029B09C061E070E0042FBE
:1001300002C0660F771F0A95E2F7562B4F5FEDCF8F
:1001400040E84A95F1F70000029B36C0563519F099
:1001500041A1463589F5573539F542A14035D9F0E9
:1001600018F4433431F01DC0413529F0423561F0B7
:1001700018C06FDF16C041B14E7F41B941E544A9B7
:1001800042B14D7F42B90DC042E544A942B142603F
:1001900042B98BDF06C041B14E7F41B942B14260E6
:1001A00042B910A911A908C040A1E42FF0E0EF5B0B
:1001B000FF4F50834F5F40A944E040BBFF91EF9158
:1001C000BF91AF919F918F917F916F915F914F916F
:1001D0000F910FBF0F911F911895789442B14D7FE9
:1001E00042B941B1436041B92FDF44A14235E9F73B
:0801F00068DFFBCFF894FFCF9C
:00000001FF
